{
  "abi": [
    {
      "type": "constructor",
      "inputs": [
        {
          "name": "name",
          "type": "string",
          "internalType": "string"
        },
        {
          "name": "symbol",
          "type": "string",
          "internalType": "string"
        },
        {
          "name": "baseURI",
          "type": "string",
          "internalType": "string"
        },
        {
          "name": "maxSupply",
          "type": "uint256",
          "internalType": "uint256"
        },
        {
          "name": "initialOwner",
          "type": "address",
          "internalType": "address"
        }
      ],
      "stateMutability": "nonpayable"
    },
    {
      "type": "function",
      "name": "approve",
      "inputs": [
        {
          "name": "to",
          "type": "address",
          "internalType": "address"
        },
        {
          "name": "tokenId",
          "type": "uint256",
          "internalType": "uint256"
        }
      ],
      "outputs": [],
      "stateMutability": "nonpayable"
    },
    {
      "type": "function",
      "name": "balanceOf",
      "inputs": [
        {
          "name": "owner",
          "type": "address",
          "internalType": "address"
        }
      ],
      "outputs": [
        {
          "name": "",
          "type": "uint256",
          "internalType": "uint256"
        }
      ],
      "stateMutability": "view"
    },
    {
      "type": "function",
      "name": "burn",
      "inputs": [
        {
          "name": "tokenId",
          "type": "uint256",
          "internalType": "uint256"
        }
      ],
      "outputs": [],
      "stateMutability": "nonpayable"
    },
    {
      "type": "function",
      "name": "getApproved",
      "inputs": [
        {
          "name": "tokenId",
          "type": "uint256",
          "internalType": "uint256"
        }
      ],
      "outputs": [
        {
          "name": "",
          "type": "address",
          "internalType": "address"
        }
      ],
      "stateMutability": "view"
    },
    {
      "type": "function",
      "name": "isApprovedForAll",
      "inputs": [
        {
          "name": "owner",
          "type": "address",
          "internalType": "address"
        },
        {
          "name": "operator",
          "type": "address",
          "internalType": "address"
        }
      ],
      "outputs": [
        {
          "name": "",
          "type": "bool",
          "internalType": "bool"
        }
      ],
      "stateMutability": "view"
    },
    {
      "type": "function",
      "name": "maxSupply",
      "inputs": [],
      "outputs": [
        {
          "name": "",
          "type": "uint256",
          "internalType": "uint256"
        }
      ],
      "stateMutability": "view"
    },
    {
      "type": "function",
      "name": "mint",
      "inputs": [
        {
          "name": "to",
          "type": "address",
          "internalType": "address"
        },
        {
          "name": "tokenURI",
          "type": "string",
          "internalType": "string"
        }
      ],
      "outputs": [
        {
          "name": "",
          "type": "uint256",
          "internalType": "uint256"
        }
      ],
      "stateMutability": "nonpayable"
    },
    {
      "type": "function",
      "name": "mintBatch",
      "inputs": [
        {
          "name": "to",
          "type": "address",
          "internalType": "address"
        },
        {
          "name": "amount",
          "type": "uint256",
          "internalType": "uint256"
        }
      ],
      "outputs": [
        {
          "name": "",
          "type": "uint256",
          "internalType": "uint256"
        }
      ],
      "stateMutability": "nonpayable"
    },
    {
      "type": "function",
      "name": "name",
      "inputs": [],
      "outputs": [
        {
          "name": "",
          "type": "string",
          "internalType": "string"
        }
      ],
      "stateMutability": "view"
    },
    {
      "type": "function",
      "name": "owner",
      "inputs": [],
      "outputs": [
        {
          "name": "",
          "type": "address",
          "internalType": "address"
        }
      ],
      "stateMutability": "view"
    },
    {
      "type": "function",
      "name": "ownerOf",
      "inputs": [
        {
          "name": "tokenId",
          "type": "uint256",
          "internalType": "uint256"
        }
      ],
      "outputs": [
        {
          "name": "",
          "type": "address",
          "internalType": "address"
        }
      ],
      "stateMutability": "view"
    },
    {
      "type": "function",
      "name": "renounceOwnership",
      "inputs": [],
      "outputs": [],
      "stateMutability": "nonpayable"
    },
    {
      "type": "function",
      "name": "safeTransferFrom",
      "inputs": [
        {
          "name": "from",
          "type": "address",
          "internalType": "address"
        },
        {
          "name": "to",
          "type": "address",
          "internalType": "address"
        },
        {
          "name": "tokenId",
          "type": "uint256",
          "internalType": "uint256"
        }
      ],
      "outputs": [],
      "stateMutability": "nonpayable"
    },
    {
      "type": "function",
      "name": "safeTransferFrom",
      "inputs": [
        {
          "name": "from",
          "type": "address",
          "internalType": "address"
        },
        {
          "name": "to",
          "type": "address",
          "internalType": "address"
        },
        {
          "name": "tokenId",
          "type": "uint256",
          "internalType": "uint256"
        },
        {
          "name": "data",
          "type": "bytes",
          "internalType": "bytes"
        }
      ],
      "outputs": [],
      "stateMutability": "nonpayable"
    },
    {
      "type": "function",
      "name": "setApprovalForAll",
      "inputs": [
        {
          "name": "operator",
          "type": "address",
          "internalType": "address"
        },
        {
          "name": "approved",
          "type": "bool",
          "internalType": "bool"
        }
      ],
      "outputs": [],
      "stateMutability": "nonpayable"
    },
    {
      "type": "function",
      "name": "setBaseURI",
      "inputs": [
        {
          "name": "newBaseURI",
          "type": "string",
          "internalType": "string"
        }
      ],
      "outputs": [],
      "stateMutability": "nonpayable"
    },
    {
      "type": "function",
      "name": "supportsInterface",
      "inputs": [
        {
          "name": "interfaceId",
          "type": "bytes4",
          "internalType": "bytes4"
        }
      ],
      "outputs": [
        {
          "name": "",
          "type": "bool",
          "internalType": "bool"
        }
      ],
      "stateMutability": "view"
    },
    {
      "type": "function",
      "name": "symbol",
      "inputs": [],
      "outputs": [
        {
          "name": "",
          "type": "string",
          "internalType": "string"
        }
      ],
      "stateMutability": "view"
    },
    {
      "type": "function",
      "name": "tokenByIndex",
      "inputs": [
        {
          "name": "index",
          "type": "uint256",
          "internalType": "uint256"
        }
      ],
      "outputs": [
        {
          "name": "",
          "type": "uint256",
          "internalType": "uint256"
        }
      ],
      "stateMutability": "view"
    },
    {
      "type": "function",
      "name": "tokenOfOwnerByIndex",
      "inputs": [
        {
          "name": "owner",
          "type": "address",
          "internalType": "address"
        },
        {
          "name": "index",
          "type": "uint256",
          "internalType": "uint256"
        }
      ],
      "outputs": [
        {
          "name": "",
          "type": "uint256",
          "internalType": "uint256"
        }
      ],
      "stateMutability": "view"
    },
    {
      "type": "function",
      "name": "tokenURI",
      "inputs": [
        {
          "name": "tokenId",
          "type": "uint256",
          "internalType": "uint256"
        }
      ],
      "outputs": [
        {
          "name": "",
          "type": "string",
          "internalType": "string"
        }
      ],
      "stateMutability": "view"
    },
    {
      "type": "function",
      "name": "totalSupply",
      "inputs": [],
      "outputs": [
        {
          "name": "",
          "type": "uint256",
          "internalType": "uint256"
        }
      ],
      "stateMutability": "view"
    },
    {
      "type": "function",
      "name": "transferFrom",
      "inputs": [
        {
          "name": "from",
          "type": "address",
          "internalType": "address"
        },
        {
          "name": "to",
          "type": "address",
          "internalType": "address"
        },
        {
          "name": "tokenId",
          "type": "uint256",
          "internalType": "uint256"
        }
      ],
      "outputs": [],
      "stateMutability": "nonpayable"
    },
    {
      "type": "function",
      "name": "transferOwnership",
      "inputs": [
        {
          "name": "newOwner",
          "type": "address",
          "internalType": "address"
        }
      ],
      "outputs": [],
      "stateMutability": "nonpayable"
    },
    {
      "type": "event",
      "name": "Approval",
      "inputs": [
        {
          "name": "owner",
          "type": "address",
          "indexed": true,
          "internalType": "address"
        },
        {
          "name": "approved",
          "type": "address",
          "indexed": true,
          "internalType": "address"
        },
        {
          "name": "tokenId",
          "type": "uint256",
          "indexed": true,
          "internalType": "uint256"
        }
      ],
      "anonymous": false
    },
    {
      "type": "event",
      "name": "ApprovalForAll",
      "inputs": [
        {
          "name": "owner",
          "type": "address",
          "indexed": true,
          "internalType": "address"
        },
        {
          "name": "operator",
          "type": "address",
          "indexed": true,
          "internalType": "address"
        },
        {
          "name": "approved",
          "type": "bool",
          "indexed": false,
          "internalType": "bool"
        }
      ],
      "anonymous": false
    },
    {
      "type": "event",
      "name": "BaseURIChanged",
      "inputs": [
        {
          "name": "newBaseURI",
          "type": "string",
          "indexed": false,
          "internalType": "string"
        }
      ],
      "anonymous": false
    },
    {
      "type": "event",
      "name": "BatchMetadataUpdate",
      "inputs": [
        {
          "name": "_fromTokenId",
          "type": "uint256",
          "indexed": false,
          "internalType": "uint256"
        },
        {
          "name": "_toTokenId",
          "type": "uint256",
          "indexed": false,
          "internalType": "uint256"
        }
      ],
      "anonymous": false
    },
    {
      "type": "event",
      "name": "BatchMinted",
      "inputs": [
        {
          "name": "to",
          "type": "address",
          "indexed": true,
          "internalType": "address"
        },
        {
          "name": "startTokenId",
          "type": "uint256",
          "indexed": false,
          "internalType": "uint256"
        },
        {
          "name": "endTokenId",
          "type": "uint256",
          "indexed": false,
          "internalType": "uint256"
        }
      ],
      "anonymous": false
    },
    {
      "type": "event",
      "name": "MetadataUpdate",
      "inputs": [
        {
          "name": "_tokenId",
          "type": "uint256",
          "indexed": false,
          "internalType": "uint256"
        }
      ],
      "anonymous": false
    },
    {
      "type": "event",
      "name": "OwnershipTransferred",
      "inputs": [
        {
          "name": "previousOwner",
          "type": "address",
          "indexed": true,
          "internalType": "address"
        },
        {
          "name": "newOwner",
          "type": "address",
          "indexed": true,
          "internalType": "address"
        }
      ],
      "anonymous": false
    },
    {
      "type": "event",
      "name": "TokenMinted",
      "inputs": [
        {
          "name": "to",
          "type": "address",
          "indexed": true,
          "internalType": "address"
        },
        {
          "name": "tokenId",
          "type": "uint256",
          "indexed": false,
          "internalType": "uint256"
        },
        {
          "name": "tokenURI",
          "type": "string",
          "indexed": false,
          "internalType": "string"
        }
      ],
      "anonymous": false
    },
    {
      "type": "event",
      "name": "Transfer",
      "inputs": [
        {
          "name": "from",
          "type": "address",
          "indexed": true,
          "internalType": "address"
        },
        {
          "name": "to",
          "type": "address",
          "indexed": true,
          "internalType": "address"
        },
        {
          "name": "tokenId",
          "type": "uint256",
          "indexed": true,
          "internalType": "uint256"
        }
      ],
      "anonymous": false
    },
    {
      "type": "error",
      "name": "ERC721EnumerableForbiddenBatchMint",
      "inputs": []
    },
    {
      "type": "error",
      "name": "ERC721IncorrectOwner",
      "inputs": [
        {
          "name": "sender",
          "type": "address",
          "internalType": "address"
        },
        {
          "name": "tokenId",
          "type": "uint256",
          "internalType": "uint256"
        },
        {
          "name": "owner",
          "type": "address",
          "internalType": "address"
        }
      ]
    },
    {
      "type": "error",
      "name": "ERC721InsufficientApproval",
      "inputs": [
        {
          "name": "operator",
          "type": "address",
          "internalType": "address"
        },
        {
          "name": "tokenId",
          "type": "uint256",
          "internalType": "uint256"
        }
      ]
    },
    {
      "type": "error",
      "name": "ERC721InvalidApprover",
      "inputs": [
        {
          "name": "approver",
          "type": "address",
          "internalType": "address"
        }
      ]
    },
    {
      "type": "error",
      "name": "ERC721InvalidOperator",
      "inputs": [
        {
          "name": "operator",
          "type": "address",
          "internalType": "address"
        }
      ]
    },
    {
      "type": "error",
      "name": "ERC721InvalidOwner",
      "inputs": [
        {
          "name": "owner",
          "type": "address",
          "internalType": "address"
        }
      ]
    },
    {
      "type": "error",
      "name": "ERC721InvalidReceiver",
      "inputs": [
        {
          "name": "receiver",
          "type": "address",
          "internalType": "address"
        }
      ]
    },
    {
      "type": "error",
      "name": "ERC721InvalidSender",
      "inputs": [
        {
          "name": "sender",
          "type": "address",
          "internalType": "address"
        }
      ]
    },
    {
      "type": "error",
      "name": "ERC721NonexistentToken",
      "inputs": [
        {
          "name": "tokenId",
          "type": "uint256",
          "internalType": "uint256"
        }
      ]
    },
    {
      "type": "error",
      "name": "ERC721OutOfBoundsIndex",
      "inputs": [
        {
          "name": "owner",
          "type": "address",
          "internalType": "address"
        },
        {
          "name": "index",
          "type": "uint256",
          "internalType": "uint256"
        }
      ]
    },
    {
      "type": "error",
      "name": "OwnableInvalidOwner",
      "inputs": [
        {
          "name": "owner",
          "type": "address",
          "internalType": "address"
        }
      ]
    },
    {
      "type": "error",
      "name": "OwnableUnauthorizedAccount",
      "inputs": [
        {
          "name": "account",
          "type": "address",
          "internalType": "address"
        }
      ]
    }
  ],
  "bytecode": {
    "object": "0x608060405234801561000f575f5ffd5b50604051613c0e380380613c0e83398181016040528101906100319190610393565b808585815f90816100429190610665565b5080600190816100529190610665565b5050505f73ffffffffffffffffffffffffffffffffffffffff168173ffffffffffffffffffffffffffffffffffffffff16036100c5575f6040517f1e4fbdf70000000000000000000000000000000000000000000000000000000081526004016100bc9190610743565b60405180910390fd5b6100d4816100f660201b60201c565b5082600c90816100e49190610665565b5081600e81905550505050505061075c565b5f600b5f9054906101000a900473ffffffffffffffffffffffffffffffffffffffff16905081600b5f6101000a81548173ffffffffffffffffffffffffffffffffffffffff021916908373ffffffffffffffffffffffffffffffffffffffff1602179055508173ffffffffffffffffffffffffffffffffffffffff168173ffffffffffffffffffffffffffffffffffffffff167f8be0079c531659141344cd1fd0a4f28419497f9722a3daafe3b4186f6b6457e060405160405180910390a35050565b5f604051905090565b5f5ffd5b5f5ffd5b5f5ffd5b5f5ffd5b5f601f19601f8301169050919050565b7f4e487b71000000000000000000000000000000000000000000000000000000005f52604160045260245ffd5b610218826101d2565b810181811067ffffffffffffffff82111715610237576102366101e2565b5b80604052505050565b5f6102496101b9565b9050610255828261020f565b919050565b5f67ffffffffffffffff821115610274576102736101e2565b5b61027d826101d2565b9050602081019050919050565b8281835e5f83830152505050565b5f6102aa6102a58461025a565b610240565b9050828152602081018484840111156102c6576102c56101ce565b5b6102d184828561028a565b509392505050565b5f82601f8301126102ed576102ec6101ca565b5b81516102fd848260208601610298565b91505092915050565b5f819050919050565b61031881610306565b8114610322575f5ffd5b50565b5f815190506103338161030f565b92915050565b5f73ffffffffffffffffffffffffffffffffffffffff82169050919050565b5f61036282610339565b9050919050565b61037281610358565b811461037c575f5ffd5b50565b5f8151905061038d81610369565b92915050565b5f5f5f5f5f60a086880312156103ac576103ab6101c2565b5b5f86015167ffffffffffffffff8111156103c9576103c86101c6565b5b6103d5888289016102d9565b955050602086015167ffffffffffffffff8111156103f6576103f56101c6565b5b610402888289016102d9565b945050604086015167ffffffffffffffff811115610423576104226101c6565b5b61042f888289016102d9565b935050606061044088828901610325565b92505060806104518882890161037f565b9150509295509295909350565b5f81519050919050565b7f4e487b71000000000000000000000000000000000000000000000000000000005f52602260045260245ffd5b5f60028204905060018216806104ac57607f821691505b6020821081036104bf576104be610468565b5b50919050565b5f819050815f5260205f209050919050565b5f6020601f8301049050919050565b5f82821b905092915050565b5f600883026105217fffffffffffffffffffffffffffffffffffffffffffffffffffffffffffffffff826104e6565b61052b86836104e6565b95508019841693508086168417925050509392505050565b5f819050919050565b5f61056661056161055c84610306565b610543565b610306565b9050919050565b5f819050919050565b61057f8361054c565b61059361058b8261056d565b8484546104f2565b825550505050565b5f5f905090565b6105aa61059b565b6105b5818484610576565b505050565b5b818110156105d8576105cd5f826105a2565b6001810190506105bb565b5050565b601f82111561061d576105ee816104c5565b6105f7846104d7565b81016020851015610606578190505b61061a610612856104d7565b8301826105ba565b50505b505050565b5f82821c905092915050565b5f61063d5f1984600802610622565b1980831691505092915050565b5f610655838361062e565b9150826002028217905092915050565b61066e8261045e565b67ffffffffffffffff811115610687576106866101e2565b5b6106918254610495565b61069c8282856105dc565b5f60209050601f8311600181146106cd575f84156106bb578287015190505b6106c5858261064a565b86555061072c565b601f1984166106db866104c5565b5f5b82811015610702578489015182556001820191506020850194506020810190506106dd565b8683101561071f578489015161071b601f89168261062e565b8355505b6001600288020188555050505b505050505050565b61073d81610358565b82525050565b5f6020820190506107565f830184610734565b92915050565b6134a5806107695f395ff3fe608060405234801561000f575f5ffd5b5060043610610156575f3560e01c80636352211e116100c1578063b88d4fde1161007a578063b88d4fde146103d4578063c87b56dd146103f0578063d0def52114610420578063d5abeb0114610450578063e985e9c51461046e578063f2fde38b1461049e57610156565b80636352211e1461031257806370a0823114610342578063715018a6146103725780638da5cb5b1461037c57806395d89b411461039a578063a22cb465146103b857610156565b8063248b71fc11610113578063248b71fc1461022e5780632f745c591461025e57806342842e0e1461028e57806342966c68146102aa5780634f6ccce7146102c657806355f804b3146102f657610156565b806301ffc9a71461015a57806306fdde031461018a578063081812fc146101a8578063095ea7b3146101d857806318160ddd146101f457806323b872dd14610212575b5f5ffd5b610174600480360381019061016f9190612611565b6104ba565b6040516101819190612656565b60405180910390f35b6101926104cb565b60405161019f91906126df565b60405180910390f35b6101c260048036038101906101bd9190612732565b61055a565b6040516101cf919061279c565b60405180910390f35b6101f260048036038101906101ed91906127df565b610575565b005b6101fc61058b565b604051610209919061282c565b60405180910390f35b61022c60048036038101906102279190612845565b610597565b005b610248600480360381019061024391906127df565b610696565b604051610255919061282c565b60405180910390f35b610278600480360381019061027391906127df565b610802565b604051610285919061282c565b60405180910390f35b6102a860048036038101906102a39190612845565b6108a6565b005b6102c460048036038101906102bf9190612732565b6108c5565b005b6102e060048036038101906102db9190612732565b610921565b6040516102ed919061282c565b60405180910390f35b610310600480360381019061030b91906129c1565b610993565b005b61032c60048036038101906103279190612732565b6109e5565b604051610339919061279c565b60405180910390f35b61035c60048036038101906103579190612a08565b6109f6565b604051610369919061282c565b60405180910390f35b61037a610aac565b005b610384610abf565b604051610391919061279c565b60405180910390f35b6103a2610ae7565b6040516103af91906126df565b60405180910390f35b6103d260048036038101906103cd9190612a5d565b610b77565b005b6103ee60048036038101906103e99190612b39565b610b8d565b005b61040a60048036038101906104059190612732565b610bb2565b60405161041791906126df565b60405180910390f35b61043a60048036038101906104359190612bb9565b610bc4565b604051610447919061282c565b60405180910390f35b610458610cae565b604051610465919061282c565b60405180910390f35b61048860048036038101906104839190612c13565b610cb7565b6040516104959190612656565b60405180910390f35b6104b860048036038101906104b39190612a08565b610d45565b005b5f6104c482610dc9565b9050919050565b60605f80546104d990612c7e565b80601f016020809104026020016040519081016040528092919081815260200182805461050590612c7e565b80156105505780601f1061052757610100808354040283529160200191610550565b820191905f5260205f20905b81548152906001019060200180831161053357829003601f168201915b5050505050905090565b5f61056482610e29565b5061056e82610eaf565b9050919050565b6105878282610582610ee8565b610eef565b5050565b5f600880549050905090565b5f73ffffffffffffffffffffffffffffffffffffffff168273ffffffffffffffffffffffffffffffffffffffff1603610607575f6040517f64a0ae920000000000000000000000000000000000000000000000000000000081526004016105fe919061279c565b60405180910390fd5b5f61061a8383610615610ee8565b610f01565b90508373ffffffffffffffffffffffffffffffffffffffff168173ffffffffffffffffffffffffffffffffffffffff1614610690578382826040517f64283d7b00000000000000000000000000000000000000000000000000000000815260040161068793929190612cae565b60405180910390fd5b50505050565b5f61069f610fcb565b5f82116106e1576040517f08c379a00000000000000000000000000000000000000000000000000000000081526004016106d890612d2d565b60405180910390fd5b5f600e54111561074357600e54826106f761058b565b6107019190612d78565b1115610742576040517f08c379a000000000000000000000000000000000000000000000000000000000815260040161073990612df5565b60405180910390fd5b5b5f600d5490505f600184836107589190612d78565b6107629190612e13565b90505f5f90505b848110156107a6575f600d549050600d5f81548092919061078990612e46565b91905055506107988782611052565b508080600101915050610769565b508473ffffffffffffffffffffffffffffffffffffffff167f59f9fb6d992d2aee0ed338bb4c504a17fd3f67ae91a3135bc2ef947e308c41b283836040516107ef929190612e8d565b60405180910390a2819250505092915050565b5f61080c836109f6565b82106108515782826040517fa57d13dc000000000000000000000000000000000000000000000000000000008152600401610848929190612eb4565b60405180910390fd5b60065f8473ffffffffffffffffffffffffffffffffffffffff1673ffffffffffffffffffffffffffffffffffffffff1681526020019081526020015f205f8381526020019081526020015f2054905092915050565b6108c083838360405180602001604052805f815250610b8d565b505050565b6108d66108d0610ee8565b8261106f565b610915576040517f08c379a000000000000000000000000000000000000000000000000000000000815260040161090c90612f25565b60405180910390fd5b61091e81611103565b50565b5f61092a61058b565b821061096f575f826040517fa57d13dc000000000000000000000000000000000000000000000000000000008152600401610966929190612eb4565b60405180910390fd5b6008828154811061098357610982612f43565b5b905f5260205f2001549050919050565b61099b610fcb565b80600c90816109aa9190613110565b507f5411e8ebf1636d9e83d5fc4900bf80cbac82e8790da2a4c94db4895e889eedf6816040516109da91906126df565b60405180910390a150565b5f6109ef82610e29565b9050919050565b5f5f73ffffffffffffffffffffffffffffffffffffffff168273ffffffffffffffffffffffffffffffffffffffff1603610a67575f6040517f89c62b64000000000000000000000000000000000000000000000000000000008152600401610a5e919061279c565b60405180910390fd5b60035f8373ffffffffffffffffffffffffffffffffffffffff1673ffffffffffffffffffffffffffffffffffffffff1681526020019081526020015f20549050919050565b610ab4610fcb565b610abd5f611185565b565b5f600b5f9054906101000a900473ffffffffffffffffffffffffffffffffffffffff16905090565b606060018054610af690612c7e565b80601f0160208091040260200160405190810160405280929190818152602001828054610b2290612c7e565b8015610b6d5780601f10610b4457610100808354040283529160200191610b6d565b820191905f5260205f20905b815481529060010190602001808311610b5057829003601f168201915b5050505050905090565b610b89610b82610ee8565b8383611248565b5050565b610b98848484610597565b610bac610ba3610ee8565b858585856113b1565b50505050565b6060610bbd8261155d565b9050919050565b5f610bcd610fcb565b5f600e541115610c2357600e54610be261058b565b10610c22576040517f08c379a0000000000000000000000000000000000000000000000000000000008152600401610c1990613229565b60405180910390fd5b5b5f600d549050600d5f815480929190610c3b90612e46565b9190505550610c4a8482611052565b610c548184611668565b8373ffffffffffffffffffffffffffffffffffffffff167fdf92894dc4675a7333caa5903b69cf5d8e8ec0d3f361c88207b6688e525703bb8285604051610c9c929190613247565b60405180910390a28091505092915050565b5f600e54905090565b5f60055f8473ffffffffffffffffffffffffffffffffffffffff1673ffffffffffffffffffffffffffffffffffffffff1681526020019081526020015f205f8373ffffffffffffffffffffffffffffffffffffffff1673ffffffffffffffffffffffffffffffffffffffff1681526020019081526020015f205f9054906101000a900460ff16905092915050565b610d4d610fcb565b5f73ffffffffffffffffffffffffffffffffffffffff168173ffffffffffffffffffffffffffffffffffffffff1603610dbd575f6040517f1e4fbdf7000000000000000000000000000000000000000000000000000000008152600401610db4919061279c565b60405180910390fd5b610dc681611185565b50565b5f634906490660e01b7bffffffffffffffffffffffffffffffffffffffffffffffffffffffff1916827bffffffffffffffffffffffffffffffffffffffffffffffffffffffff19161480610e225750610e21826116c2565b5b9050919050565b5f5f610e348361173b565b90505f73ffffffffffffffffffffffffffffffffffffffff168173ffffffffffffffffffffffffffffffffffffffff1603610ea657826040517f7e273289000000000000000000000000000000000000000000000000000000008152600401610e9d919061282c565b60405180910390fd5b80915050919050565b5f60045f8381526020019081526020015f205f9054906101000a900473ffffffffffffffffffffffffffffffffffffffff169050919050565b5f33905090565b610efc8383836001611774565b505050565b5f5f610f0c8461173b565b90505f73ffffffffffffffffffffffffffffffffffffffff168173ffffffffffffffffffffffffffffffffffffffff1614158015610f7657505f73ffffffffffffffffffffffffffffffffffffffff168573ffffffffffffffffffffffffffffffffffffffff1614155b15610fb6576040517f08c379a0000000000000000000000000000000000000000000000000000000008152600401610fad906132bf565b60405180910390fd5b610fc1858585611933565b9150509392505050565b610fd3610ee8565b73ffffffffffffffffffffffffffffffffffffffff16610ff1610abf565b73ffffffffffffffffffffffffffffffffffffffff161461105057611014610ee8565b6040517f118cdaa7000000000000000000000000000000000000000000000000000000008152600401611047919061279c565b60405180910390fd5b565b61106b828260405180602001604052805f815250611a4d565b5050565b5f5f61107a836109e5565b90503373ffffffffffffffffffffffffffffffffffffffff168173ffffffffffffffffffffffffffffffffffffffff1614806110e957503373ffffffffffffffffffffffffffffffffffffffff166110d18461055a565b73ffffffffffffffffffffffffffffffffffffffff16145b806110fa57506110f98133610cb7565b5b91505092915050565b5f61110f5f835f610f01565b90505f73ffffffffffffffffffffffffffffffffffffffff168173ffffffffffffffffffffffffffffffffffffffff160361118157816040517f7e273289000000000000000000000000000000000000000000000000000000008152600401611178919061282c565b60405180910390fd5b5050565b5f600b5f9054906101000a900473ffffffffffffffffffffffffffffffffffffffff16905081600b5f6101000a81548173ffffffffffffffffffffffffffffffffffffffff021916908373ffffffffffffffffffffffffffffffffffffffff1602179055508173ffffffffffffffffffffffffffffffffffffffff168173ffffffffffffffffffffffffffffffffffffffff167f8be0079c531659141344cd1fd0a4f28419497f9722a3daafe3b4186f6b6457e060405160405180910390a35050565b5f73ffffffffffffffffffffffffffffffffffffffff168273ffffffffffffffffffffffffffffffffffffffff16036112b857816040517f5b08ba180000000000000000000000000000000000000000000000000000000081526004016112af919061279c565b60405180910390fd5b8060055f8573ffffffffffffffffffffffffffffffffffffffff1673ffffffffffffffffffffffffffffffffffffffff1681526020019081526020015f205f8473ffffffffffffffffffffffffffffffffffffffff1673ffffffffffffffffffffffffffffffffffffffff1681526020019081526020015f205f6101000a81548160ff0219169083151502179055508173ffffffffffffffffffffffffffffffffffffffff168373ffffffffffffffffffffffffffffffffffffffff167f17307eab39ab6107e8899845ad3d59bd9653f200f220920489ca2b5937696c31836040516113a49190612656565b60405180910390a3505050565b5f8373ffffffffffffffffffffffffffffffffffffffff163b1115611556578273ffffffffffffffffffffffffffffffffffffffff1663150b7a02868685856040518563ffffffff1660e01b815260040161140f949392919061332f565b6020604051808303815f875af192505050801561144a57506040513d601f19601f82011682018060405250810190611447919061338d565b60015b6114cb573d805f8114611478576040519150601f19603f3d011682016040523d82523d5f602084013e61147d565b606091505b505f8151036114c357836040517f64a0ae920000000000000000000000000000000000000000000000000000000081526004016114ba919061279c565b60405180910390fd5b805181602001fd5b63150b7a0260e01b7bffffffffffffffffffffffffffffffffffffffffffffffffffffffff1916817bffffffffffffffffffffffffffffffffffffffffffffffffffffffff19161461155457836040517f64a0ae9200000000000000000000000000000000000000000000000000000000815260040161154b919061279c565b60405180910390fd5b505b5050505050565b606061156882610e29565b505f600a5f8481526020019081526020015f20805461158690612c7e565b80601f01602080910402602001604051908101604052809291908181526020018280546115b290612c7e565b80156115fd5780601f106115d4576101008083540402835291602001916115fd565b820191905f5260205f20905b8154815290600101906020018083116115e057829003601f168201915b505050505090505f61160d611a70565b90505f815103611621578192505050611663565b5f8251111561165557808260405160200161163d9291906133f2565b60405160208183030381529060405292505050611663565b61165e84611b00565b925050505b919050565b80600a5f8481526020019081526020015f2090816116869190613110565b507ff8e1a15aba9398e019f0b49df1a4fde98ee17ae345cb5f6b5e2c27f5033e8ce7826040516116b6919061282c565b60405180910390a15050565b5f7f780e9d63000000000000000000000000000000000000000000000000000000007bffffffffffffffffffffffffffffffffffffffffffffffffffffffff1916827bffffffffffffffffffffffffffffffffffffffffffffffffffffffff19161480611734575061173382611b66565b5b9050919050565b5f60025f8381526020019081526020015f205f9054906101000a900473ffffffffffffffffffffffffffffffffffffffff169050919050565b80806117ac57505f73ffffffffffffffffffffffffffffffffffffffff168273ffffffffffffffffffffffffffffffffffffffff1614155b156118de575f6117bb84610e29565b90505f73ffffffffffffffffffffffffffffffffffffffff168373ffffffffffffffffffffffffffffffffffffffff161415801561182557508273ffffffffffffffffffffffffffffffffffffffff168173ffffffffffffffffffffffffffffffffffffffff1614155b801561183857506118368184610cb7565b155b1561187a57826040517fa9fbf51f000000000000000000000000000000000000000000000000000000008152600401611871919061279c565b60405180910390fd5b81156118dc57838573ffffffffffffffffffffffffffffffffffffffff168273ffffffffffffffffffffffffffffffffffffffff167f8c5be1e5ebec7d5bd14f71427d1e84f3dd0314c0f7b2291e5b200ac8c7c3b92560405160405180910390a45b505b8360045f8581526020019081526020015f205f6101000a81548173ffffffffffffffffffffffffffffffffffffffff021916908373ffffffffffffffffffffffffffffffffffffffff16021790555050505050565b5f5f611940858585611c47565b90505f73ffffffffffffffffffffffffffffffffffffffff168173ffffffffffffffffffffffffffffffffffffffff16036119835761197e84611e52565b6119c2565b8473ffffffffffffffffffffffffffffffffffffffff168173ffffffffffffffffffffffffffffffffffffffff16146119c1576119c08185611e96565b5b5b5f73ffffffffffffffffffffffffffffffffffffffff168573ffffffffffffffffffffffffffffffffffffffff1603611a03576119fe84611f6d565b611a42565b8473ffffffffffffffffffffffffffffffffffffffff168173ffffffffffffffffffffffffffffffffffffffff1614611a4157611a40858561202d565b5b5b809150509392505050565b611a5783836120b1565b611a6b611a62610ee8565b5f8585856113b1565b505050565b6060600c8054611a7f90612c7e565b80601f0160208091040260200160405190810160405280929190818152602001828054611aab90612c7e565b8015611af65780601f10611acd57610100808354040283529160200191611af6565b820191905f5260205f20905b815481529060010190602001808311611ad957829003601f168201915b5050505050905090565b6060611b0b82610e29565b505f611b15611a70565b90505f815111611b335760405180602001604052805f815250611b5e565b80611b3d846121a4565b604051602001611b4e9291906133f2565b6040516020818303038152906040525b915050919050565b5f7f80ac58cd000000000000000000000000000000000000000000000000000000007bffffffffffffffffffffffffffffffffffffffffffffffffffffffff1916827bffffffffffffffffffffffffffffffffffffffffffffffffffffffff19161480611c3057507f5b5e139f000000000000000000000000000000000000000000000000000000007bffffffffffffffffffffffffffffffffffffffffffffffffffffffff1916827bffffffffffffffffffffffffffffffffffffffffffffffffffffffff1916145b80611c405750611c3f8261226e565b5b9050919050565b5f5f611c528461173b565b90505f73ffffffffffffffffffffffffffffffffffffffff168373ffffffffffffffffffffffffffffffffffffffff1614611c9357611c928184866122d7565b5b5f73ffffffffffffffffffffffffffffffffffffffff168173ffffffffffffffffffffffffffffffffffffffff1614611d1e57611cd25f855f5f611774565b600160035f8373ffffffffffffffffffffffffffffffffffffffff1673ffffffffffffffffffffffffffffffffffffffff1681526020019081526020015f205f82825403925050819055505b5f73ffffffffffffffffffffffffffffffffffffffff168573ffffffffffffffffffffffffffffffffffffffff1614611d9d57600160035f8773ffffffffffffffffffffffffffffffffffffffff1673ffffffffffffffffffffffffffffffffffffffff1681526020019081526020015f205f82825401925050819055505b8460025f8681526020019081526020015f205f6101000a81548173ffffffffffffffffffffffffffffffffffffffff021916908373ffffffffffffffffffffffffffffffffffffffff160217905550838573ffffffffffffffffffffffffffffffffffffffff168273ffffffffffffffffffffffffffffffffffffffff167fddf252ad1be2c89b69c2b068fc378daa952ba7f163c4a11628f55a4df523b3ef60405160405180910390a4809150509392505050565b60088054905060095f8381526020019081526020015f2081905550600881908060018154018082558091505060019003905f5260205f20015f909190919091505550565b5f611ea0836109f6565b90505f60075f8481526020019081526020015f205490505f60065f8673ffffffffffffffffffffffffffffffffffffffff1673ffffffffffffffffffffffffffffffffffffffff1681526020019081526020015f209050828214611f3f575f815f8581526020019081526020015f2054905080825f8581526020019081526020015f20819055508260075f8381526020019081526020015f2081905550505b60075f8581526020019081526020015f205f9055805f8481526020019081526020015f205f90555050505050565b5f6001600880549050611f809190612e13565b90505f60095f8481526020019081526020015f205490505f60088381548110611fac57611fab612f43565b5b905f5260205f20015490508060088381548110611fcc57611fcb612f43565b5b905f5260205f2001819055508160095f8381526020019081526020015f208190555060095f8581526020019081526020015f205f9055600880548061201457612013613415565b5b600190038181905f5260205f20015f9055905550505050565b5f6001612039846109f6565b6120439190612e13565b90508160065f8573ffffffffffffffffffffffffffffffffffffffff1673ffffffffffffffffffffffffffffffffffffffff1681526020019081526020015f205f8381526020019081526020015f20819055508060075f8481526020019081526020015f2081905550505050565b5f73ffffffffffffffffffffffffffffffffffffffff168273ffffffffffffffffffffffffffffffffffffffff1603612121575f6040517f64a0ae92000000000000000000000000000000000000000000000000000000008152600401612118919061279c565b60405180910390fd5b5f61212d83835f610f01565b90505f73ffffffffffffffffffffffffffffffffffffffff168173ffffffffffffffffffffffffffffffffffffffff161461219f575f6040517f73c6ac6e000000000000000000000000000000000000000000000000000000008152600401612196919061279c565b60405180910390fd5b505050565b60605f60016121b28461239a565b0190505f8167ffffffffffffffff8111156121d0576121cf61289d565b5b6040519080825280601f01601f1916602001820160405280156122025781602001600182028036833780820191505090505b5090505f82602001820190505b600115612263578080600190039150507f3031323334353637383961626364656600000000000000000000000000000000600a86061a8153600a858161225857612257613442565b5b0494505f850361220f575b819350505050919050565b5f7f01ffc9a7000000000000000000000000000000000000000000000000000000007bffffffffffffffffffffffffffffffffffffffffffffffffffffffff1916827bffffffffffffffffffffffffffffffffffffffffffffffffffffffff1916149050919050565b6122e28383836124eb565b612395575f73ffffffffffffffffffffffffffffffffffffffff168373ffffffffffffffffffffffffffffffffffffffff160361235657806040517f7e27328900000000000000000000000000000000000000000000000000000000815260040161234d919061282c565b60405180910390fd5b81816040517f177e802f00000000000000000000000000000000000000000000000000000000815260040161238c929190612eb4565b60405180910390fd5b505050565b5f5f5f90507a184f03e93ff9f4daa797ed6e38ed64bf6a1f01000000000000000083106123f6577a184f03e93ff9f4daa797ed6e38ed64bf6a1f01000000000000000083816123ec576123eb613442565b5b0492506040810190505b6d04ee2d6d415b85acef81000000008310612433576d04ee2d6d415b85acef8100000000838161242957612428613442565b5b0492506020810190505b662386f26fc10000831061246257662386f26fc10000838161245857612457613442565b5b0492506010810190505b6305f5e100831061248b576305f5e100838161248157612480613442565b5b0492506008810190505b61271083106124b05761271083816124a6576124a5613442565b5b0492506004810190505b606483106124d357606483816124c9576124c8613442565b5b0492506002810190505b600a83106124e2576001810190505b80915050919050565b5f5f73ffffffffffffffffffffffffffffffffffffffff168373ffffffffffffffffffffffffffffffffffffffff16141580156125a257508273ffffffffffffffffffffffffffffffffffffffff168473ffffffffffffffffffffffffffffffffffffffff16148061256357506125628484610cb7565b5b806125a157508273ffffffffffffffffffffffffffffffffffffffff1661258983610eaf565b73ffffffffffffffffffffffffffffffffffffffff16145b5b90509392505050565b5f604051905090565b5f5ffd5b5f5ffd5b5f7fffffffff0000000000000000000000000000000000000000000000000000000082169050919050565b6125f0816125bc565b81146125fa575f5ffd5b50565b5f8135905061260b816125e7565b92915050565b5f60208284031215612626576126256125b4565b5b5f612633848285016125fd565b91505092915050565b5f8115159050919050565b6126508161263c565b82525050565b5f6020820190506126695f830184612647565b92915050565b5f81519050919050565b5f82825260208201905092915050565b8281835e5f83830152505050565b5f601f19601f8301169050919050565b5f6126b18261266f565b6126bb8185612679565b93506126cb818560208601612689565b6126d481612697565b840191505092915050565b5f6020820190508181035f8301526126f781846126a7565b905092915050565b5f819050919050565b612711816126ff565b811461271b575f5ffd5b50565b5f8135905061272c81612708565b92915050565b5f60208284031215612747576127466125b4565b5b5f6127548482850161271e565b91505092915050565b5f73ffffffffffffffffffffffffffffffffffffffff82169050919050565b5f6127868261275d565b9050919050565b6127968161277c565b82525050565b5f6020820190506127af5f83018461278d565b92915050565b6127be8161277c565b81146127c8575f5ffd5b50565b5f813590506127d9816127b5565b92915050565b5f5f604083850312156127f5576127f46125b4565b5b5f612802858286016127cb565b92505060206128138582860161271e565b9150509250929050565b612826816126ff565b82525050565b5f60208201905061283f5f83018461281d565b92915050565b5f5f5f6060848603121561285c5761285b6125b4565b5b5f612869868287016127cb565b935050602061287a868287016127cb565b925050604061288b8682870161271e565b9150509250925092565b5f5ffd5b5f5ffd5b7f4e487b71000000000000000000000000000000000000000000000000000000005f52604160045260245ffd5b6128d382612697565b810181811067ffffffffffffffff821117156128f2576128f161289d565b5b80604052505050565b5f6129046125ab565b905061291082826128ca565b919050565b5f67ffffffffffffffff82111561292f5761292e61289d565b5b61293882612697565b9050602081019050919050565b828183375f83830152505050565b5f61296561296084612915565b6128fb565b90508281526020810184848401111561298157612980612899565b5b61298c848285612945565b509392505050565b5f82601f8301126129a8576129a7612895565b5b81356129b8848260208601612953565b91505092915050565b5f602082840312156129d6576129d56125b4565b5b5f82013567ffffffffffffffff8111156129f3576129f26125b8565b5b6129ff84828501612994565b91505092915050565b5f60208284031215612a1d57612a1c6125b4565b5b5f612a2a848285016127cb565b91505092915050565b612a3c8161263c565b8114612a46575f5ffd5b50565b5f81359050612a5781612a33565b92915050565b5f5f60408385031215612a7357612a726125b4565b5b5f612a80858286016127cb565b9250506020612a9185828601612a49565b9150509250929050565b5f67ffffffffffffffff821115612ab557612ab461289d565b5b612abe82612697565b9050602081019050919050565b5f612add612ad884612a9b565b6128fb565b905082815260208101848484011115612af957612af8612899565b5b612b04848285612945565b509392505050565b5f82601f830112612b2057612b1f612895565b5b8135612b30848260208601612acb565b91505092915050565b5f5f5f5f60808587031215612b5157612b506125b4565b5b5f612b5e878288016127cb565b9450506020612b6f878288016127cb565b9350506040612b808782880161271e565b925050606085013567ffffffffffffffff811115612ba157612ba06125b8565b5b612bad87828801612b0c565b91505092959194509250565b5f5f60408385031215612bcf57612bce6125b4565b5b5f612bdc858286016127cb565b925050602083013567ffffffffffffffff811115612bfd57612bfc6125b8565b5b612c0985828601612994565b9150509250929050565b5f5f60408385031215612c2957612c286125b4565b5b5f612c36858286016127cb565b9250506020612c47858286016127cb565b9150509250929050565b7f4e487b71000000000000000000000000000000000000000000000000000000005f52602260045260245ffd5b5f6002820490506001821680612c9557607f821691505b602082108103612ca857612ca7612c51565b5b50919050565b5f606082019050612cc15f83018661278d565b612cce602083018561281d565b612cdb604083018461278d565b949350505050565b7f4d757374206d696e74206174206c65617374206f6e6520746f6b656e000000005f82015250565b5f612d17601c83612679565b9150612d2282612ce3565b602082019050919050565b5f6020820190508181035f830152612d4481612d0b565b9050919050565b7f4e487b71000000000000000000000000000000000000000000000000000000005f52601160045260245ffd5b5f612d82826126ff565b9150612d8d836126ff565b9250828201905080821115612da557612da4612d4b565b5b92915050565b7f576f756c6420657863656564206d617820737570706c790000000000000000005f82015250565b5f612ddf601783612679565b9150612dea82612dab565b602082019050919050565b5f6020820190508181035f830152612e0c81612dd3565b9050919050565b5f612e1d826126ff565b9150612e28836126ff565b9250828203905081811115612e4057612e3f612d4b565b5b92915050565b5f612e50826126ff565b91507fffffffffffffffffffffffffffffffffffffffffffffffffffffffffffffffff8203612e8257612e81612d4b565b5b600182019050919050565b5f604082019050612ea05f83018561281d565b612ead602083018461281d565b9392505050565b5f604082019050612ec75f83018561278d565b612ed4602083018461281d565b9392505050565b7f4e6f7420617070726f76656420746f206275726e0000000000000000000000005f82015250565b5f612f0f601483612679565b9150612f1a82612edb565b602082019050919050565b5f6020820190508181035f830152612f3c81612f03565b9050919050565b7f4e487b71000000000000000000000000000000000000000000000000000000005f52603260045260245ffd5b5f819050815f5260205f209050919050565b5f6020601f8301049050919050565b5f82821b905092915050565b5f60088302612fcc7fffffffffffffffffffffffffffffffffffffffffffffffffffffffffffffffff82612f91565b612fd68683612f91565b95508019841693508086168417925050509392505050565b5f819050919050565b5f61301161300c613007846126ff565b612fee565b6126ff565b9050919050565b5f819050919050565b61302a83612ff7565b61303e61303682613018565b848454612f9d565b825550505050565b5f5f905090565b613055613046565b613060818484613021565b505050565b5b81811015613083576130785f8261304d565b600181019050613066565b5050565b601f8211156130c85761309981612f70565b6130a284612f82565b810160208510156130b1578190505b6130c56130bd85612f82565b830182613065565b50505b505050565b5f82821c905092915050565b5f6130e85f19846008026130cd565b1980831691505092915050565b5f61310083836130d9565b9150826002028217905092915050565b6131198261266f565b67ffffffffffffffff8111156131325761313161289d565b5b61313c8254612c7e565b613147828285613087565b5f60209050601f831160018114613178575f8415613166578287015190505b61317085826130f5565b8655506131d7565b601f19841661318686612f70565b5f5b828110156131ad57848901518255600182019150602085019450602081019050613188565b868310156131ca57848901516131c6601f8916826130d9565b8355505b6001600288020188555050505b505050505050565b7f4d617820737570706c79207265616368656400000000000000000000000000005f82015250565b5f613213601283612679565b915061321e826131df565b602082019050919050565b5f6020820190508181035f83015261324081613207565b9050919050565b5f60408201905061325a5f83018561281d565b818103602083015261326c81846126a7565b90509392505050565b7f536f756c626f756e643a205472616e73666572206661696c65640000000000005f82015250565b5f6132a9601a83612679565b91506132b482613275565b602082019050919050565b5f6020820190508181035f8301526132d68161329d565b9050919050565b5f81519050919050565b5f82825260208201905092915050565b5f613301826132dd565b61330b81856132e7565b935061331b818560208601612689565b61332481612697565b840191505092915050565b5f6080820190506133425f83018761278d565b61334f602083018661278d565b61335c604083018561281d565b818103606083015261336e81846132f7565b905095945050505050565b5f81519050613387816125e7565b92915050565b5f602082840312156133a2576133a16125b4565b5b5f6133af84828501613379565b91505092915050565b5f81905092915050565b5f6133cc8261266f565b6133d681856133b8565b93506133e6818560208601612689565b80840191505092915050565b5f6133fd82856133c2565b915061340982846133c2565b91508190509392505050565b7f4e487b71000000000000000000000000000000000000000000000000000000005f52603160045260245ffd5b7f4e487b71000000000000000000000000000000000000000000000000000000005f52601260045260245ffdfea2646970667358221220527c76ff43529157d3c99b7ab5f123a29e69b2fb29d1af6b8fcdb4d4ea5fc57564736f6c634300081c0033",
    "linkReferences": {}
  },
  "methodIdentifiers": {
    "approve(address,uint256)": "095ea7b3",
    "balanceOf(address)": "70a08231",
    "burn(uint256)": "42966c68",
    "getApproved(uint256)": "081812fc",
    "isApprovedForAll(address,address)": "e985e9c5",
    "maxSupply()": "d5abeb01",
    "mint(address,string)": "d0def521",
    "mintBatch(address,uint256)": "248b71fc",
    "name()": "06fdde03",
    "owner()": "8da5cb5b",
    "ownerOf(uint256)": "6352211e",
    "renounceOwnership()": "715018a6",
    "safeTransferFrom(address,address,uint256)": "42842e0e",
    "safeTransferFrom(address,address,uint256,bytes)": "b88d4fde",
    "setApprovalForAll(address,bool)": "a22cb465",
    "setBaseURI(string)": "55f804b3",
    "supportsInterface(bytes4)": "01ffc9a7",
    "symbol()": "95d89b41",
    "tokenByIndex(uint256)": "4f6ccce7",
    "tokenOfOwnerByIndex(address,uint256)": "2f745c59",
    "tokenURI(uint256)": "c87b56dd",
    "totalSupply()": "18160ddd",
    "transferFrom(address,address,uint256)": "23b872dd",
    "transferOwnership(address)": "f2fde38b"
  },
  "id": 21
}